:100000000C94E0030C94FD030C94FD030C94053553
:100010000C94FD030C94FD030C94FD030C94FD0360
:100020000C94FD030C94FD030C9440330C94183491
:100030000C94F5320C94FD030C94FD030C94FD0319
:100040000C94FD030C94FD030C94FD030C94FD0330
:100050000C94FD030C941C330C94FD030C94FD03D1
:100060000C94FD030C94FD030C94FD030C94FD0310
:100070000C94FD030C94FD030C94FD030C94FD0300
:100080000C94FD030C94FD030C94FD030C94FD03F0
:100090000C94FD030C94FD030C94FD030C94FD03E0
:1000A0000C94FD030C94FD030C94FD0305010980E1
:1000B000A101850319012AB700150126B700950192
:1000C00075108100C0050C0901A101850419012AE0
:1000D000A002150126A002950175108100C00660DE
:1000E000FF0961A1010962150026FF00952075082E
:1000F00081020963150026FF00952075089102C052
:1001000005010906A101050719E029E715002501E8
:10011000950875018102950175088101050719008F
:1001200029FF150026FF00950675088100050819AE
:10013000012905950575019102950175039101C08D
:1001400009025B00030100A0FA0904000001030199
:100150000100092111010001224000070581030867
:10016000000109040100020300000009211101003F
:100170000122220007058203200001070503032056
:10018000000109040200010300000009211101001F
:100190000122320007058403200001120100020041
:1001A00000000832FC87020100010203011C0376F3
:1001B00000690061006C003A00660036003400639C
:1001C00000320062003300630000000C0353006F34
:1001D0000066006C00650000001A034A006F00739F
:1001E00000650066004100640061006D0063006905
:1001F000006B00000004030904010001000100017C
:1002000000010001000100010001000100010001E6
:100210000035001E001F00200021002200290014CC
:10022000001A000800150017002B00040016000734
:100230000009000A00E1001D001B0006001900056E
:1002400000E300E200E00001512800A8003500278B
:100250000026002500240023002A00130012000CB1
:100260000018001C00340033000F000E000D000BBE
:1002700000E50038003700360010001100E700E606
:1002800000E40002512C00000001003A003B003C59
:10029000003D003E0035001E001F0020002100220E
:1002A0000001001E021F0220022102220201002E74
:1002B000002D002E022F023002010001000100017A
:1002C0000001000100440043004200410040003FA3
:1002D00000450027002600250024002300310227C6
:1002E00002260225022402230201003100330233D8
:1002F0000030002F00010001000100010001000199
:10030000000100010001000100010001000100499D
:100310000046006500000000000100E200E000E18E
:10032000000000390001007A007B007C007D0000A5
:1003300000010001000100010001000100010001B5
:100340000001000100010001002A0001000100522B
:100350000001004B002A004C004F00510050004E9D
:100360000001000000010000000100000001000188
:1003700000010001000100010001000100AC04F0D7
:10038000160617000002000200A804F01606170067
:100390000003000100AD04F016061700000400027F
:1003A000009204F0160617080705000100AE04F0DD
:1003B0001606170000060002009404F01606170047
:1003C0000007000200AA04F016061700000800014A
:1003D00000AF04F0160617000012000200B004F08F
:1003E000160617000013000200B204F016061700EC
:1003F0000014000100B404F01606170000150000F8
:10040000000000110704140000FD377A585A00005C
:1004100004E6D6B4460200210116000000742FE560
:10042000A3E008E2024C5D003D8889C65436C3173C
:100430004FE4E62B87DC61F128B5AEA0A33C3CF489
:100440005F7424B52C3D20C7689B3A8E08CE16E217
:100450008FDD74FFA04F08D43D201DD0558F11BBF8
:10046000B13287318A341491884A492E35E0342DCF
:100470000C400E9A3CEAF71ADE8FB7A230CF5983B0
:10048000F223EF20330CC056779F9CED4D7DAF3F9C
:10049000D6C289956075A12F2E891DDC43DF675F69
:1004A00081D38DC5C3D81411649D6290F38B2C3613
:1004B0005D0B6F74C04E46B3DED00F56EE8AE2DAA3
:1004C000B7FB9EFD0D52C588DC45FF874E8E61CF80
:1004D00038B24884655A4D7476CD19495E5DD5F1C0
:1004E000A4BAB0B017AFD23C9471A8793419EDC753
:1004F000367C4DB86CFF0F9FC4D682F61E028C6E00
:10050000040164DC13F769236B5C1B173425A3AA71
:10051000CCB1CE1B6458512974EBCF67BC05AF68D2
:1005200001AB1F9DBAF8424C73DA53FA234F3ED108
:10053000FCDE9F32459070FE604F3037942A16C71C
:10054000A89A52BA8BD32488E60234B33230E25BE5
:1005500002F96739FB000ED8394232BA69E6C7B6EC
:10056000B4B1109460026B794FB8BDC9E9DA58761E
:1005700032299FB653855DFDDEF3B603CD39B7DC76
:100580004DA942249A5411D726B6B55B33ADEBADD5
:10059000F5D7D48445A32FAECFE7FD52418C7535F6
:1005A000D1ED6688C5C3B66ED8A73473063DC8E0E2
:1005B0006EBAE463C7C59C31D05BE096CC2FBE1FFA
:1005C00053F74A885C950AFE0A7AB34C3248230BEB
:1005D00057D3C22EFF6C14DF96681887B1137717B4
:1005E00088D21F2EF65EF6EA81BD9E780C99ADFB8F
:1005F000AE8ACB3F227CC2541095BA3303810447A4
:10060000A8821B9EBE3EE2CEBBBFD790D6CCA1CD6A
:10061000DE15224B703556F3C0AEF2CA6FB30651E9
:100620006C763356767F419828CEB0EB9E5CBB68E3
:10063000AC9CF7C21DFD6BEB2C49B7166F54BB2861
:1006400052D4BC222279F621D7640A4DFF6E6B6624
:100650001140C16B4059A09581608C237F04137EAB
:100660009770EC23369BC1F35CD589B57D789644B1
:100670002D57F1A400522FF7134D662E810001E88B
:1006800004E311000063CCEC15B1C467FB02000069
:10069000000004595A010000050105020503050484
:1006A0000505050006010602060306040605060008
:1006B00007010702070307040705070008010802EE
:1006C00008030804080508000901090209030904D0
:1006D00009050900000100020003000400050000F4
:1006E00001010102010301040105010002010202EE
:1006F00002030204020502000301030203030304D0
:1007000003050300040104020403040404050400B7
:1007100000000000000000000000000000000000D9
:1007200000000000000000000000000000000000C9
:100730000000007E0F00D4FFFFFFC700000078001C
:10074000000000000000002A2B280000000000002C
:100750000000000000000000000029000000002C44
:100760001E3420212224342627252E362D373827E3
:100770001E1F202122232425263333362E37381FEF
:100780000405060708090A0B0C0D0E0F10111213B1
:100790001415161718191A1B1C1D2F3130232D354F
:1007A0000405060708090A0B0C0D0E0F1011121391
:1007B0001415161718191A1B1C1D2F3130354C0033
:1007C00011241FBECFEFDAE0DEBFCDBF11E0A0E005
:1007D000B1E0E8E9FEE602C005900D92A43AB10747
:1007E000D9F724E0A4EAB1E001C01D92AA3BB20708
:1007F000E1F70E948A2B0C940C370C9400009C01AA
:100800009A9581159F4118F5F901EE27F270832F13
:100810008170B90166277470A9014427587034FFAC
:100820000CC08295807FEF2B09F08062672B09F066
:100830008064452B69F080680895EF2B09F0826091
:10084000672B09F08460452B19F08860089580E0DB
:100850000895CF93DF93EB010E94FF03FE010995FA
:10086000DF91CF910895282F92959F70963091F047
:1008700060F4925F9F70923030F481E0203F79F015
:1008800030F4283E30F080E008959A5FF3CF243FA3
:10089000D1F7089581E0283EE0F3213FF9CF089594
:1008A0009B01677091E001C0990F6A95EAF763E0D8
:1008B000369527956A95E1F7B901660F771F260FE0
:1008C000371FFA01E20FF31F40E050E0682F70E09D
:1008D0008191DF0111979B01042E02C03695279567
:1008E0000A94E2F7217021952827292328272C93A1
:1008F0004F5F5F4F4330510559F708959C01A82F72
:10090000A77083E0369527958A95E1F7C901880F8E
:10091000991F820F931FFB01E80FF91F40E050E081
:1009200080E0219130E00A2E02C0369527950A9486
:10093000E2F721703327042E01C0220F0A94EAF750
:10094000822B4F5F5F4F4330510559F70895282F91
:10095000862F903F79F09A3070F4263058F4622F49
:1009600070E026E0929F600D711D112443E953E071
:100970000E94500408959C5F9230E0F7622F70E06F
:1009800040E953E0F5CF903FC9F09A3080F48630CB
:10099000A8F4282F30E063E973E0A901E6E09E9F08
:1009A000400D511D1124CA010E947E0408959C5FD0
:1009B000923020F460E973E090E0F6CF80E0089593
:1009C0008091470390914603981301C008958F5F6B
:1009D0008770FACFA8EAB1E0EFEF90E02D9182178F
:1009E00051F0EF3F19F4211101C0E92F9F5F9630BC
:1009F000A9F7EF3F09F408950E2E000CFF0BEA55FE
:100A0000FE4F82830895E8EAF1E09191891303C0D3
:100A1000DF0111971C9291E0EE3AF907B1F70895C2
:100A2000982F90958091D50389238093D5030895BD
:100A30008091D403882331F01092D403109245039F
:100A40001092440308959091B60492FF06C0282F97
:100A500028712830F9F4877F846093FF06C0282F1F
:100A600028712831F1F4877E84612091B70420FF3A
:100A700006C0382F38713830D9F4877F816021FF64
:100A800006C0282F28712831D1F4877E816194FD1A
:100A9000877E0895282F24712430F9F68B7F886093
:100AA000DCCF282F2471243101F78B7E8861DDCFC4
:100AB000382F3171313019F78E7F8860E0CF282FC1
:100AC0002171213121F78E7E8861E1CFCF93DF93B1
:100AD000EC01803E910509F486C090F581339105C3
:100AE00009F4CAC088F48932910509F4BEC08A327B
:100AF000910509F4C8C0019709F486C0CE01049796
:100B0000813A9105D0F480C08933910509F463C01E
:100B10008238910509F45FC08533910509F49EC0C0
:100B2000883A910530F4853A910540F3A497D06452
:100B30006BC08F3B910508F402C1C0E0D0E064C0F7
:100B4000843E910509F46FC0B0F4823E910509F42A
:100B500057C0833E910509F45BC0C11580E4D807F6
:100B600008F0F8C0C83ED10508F44EC0CE019A95F1
:100B70008F3F9E41C7CF863E910509F45FC0873EF7
:100B8000910509F460C0811524E5920708F0A0C022
:100B9000811533E5930708F0E5C0811540E594071A
:100BA000E0F2811552E5950708F474C086958695A4
:100BB00060E2869FC0011124C370DD2721E030E090
:100BC000A90102C0440F551FCA95E2F7EA01C82BDC
:100BD000D92BDC6819C08091B60483708823A1F0FA
:100BE000C0EED0E011C08091B60480FDEDC09091C0
:100BF000B70490FF09C0C3EED0E084FD9ECF04C0CF
:100C00008091B60482FDF7CFCE01DF91CF91089598
:100C10008091B60482FDDBC09091B70490FDE0CFD7
:100C200084FFF2CF8ACF8091B70481FFEDCF80910E
:100C3000B604C7EED0E084FD80CFE6CF8091B60445
:100C400083FDF7CFE1CF8091B60483FDC3C09091BF
:100C5000B70491FFE5CFC4EED0E0D6CF8091B604C3
:100C600085FFD2CFC9E2D0E0CFCF8091B60485FF17
:100C7000CBCFC5E3D0E0C8CF8091B60486FFC4CF08
:100C8000CAE2D0E0C1CF8091B60486FFBDCFC1E3F8
:100C9000D0E0BACF811531E5930708F05EC09C0122
:100CA000F4E036952795FA95E1F7237086958695B9
:100CB000837040E2849FC0011124922BC37021E015
:100CC00030E0A90102C0440F551FCA95E2F77ECF5C
:100CD000811559E59507E8F4811568E5960708F050
:100CE00061C0C11586E5D80750F4C11525E5D207C6
:100CF00008F04DC0DC2FCC27C46FD06A85CFCE0161
:100D000096558F3F910511F008F017CFDD27D0667B
:100D10007BCF81153AE5930708F449C090568115B9
:100D2000904208F00ACF8D2F8F710E94230590E02A
:100D3000982F882788279F718C2BEC0131C0C85AC7
:100D4000D0E0CC0FDD1FCA58DE4F0990D881C02DEE
:100D5000D4645ACFDF70D06A57CFD82FCC27C16F59
:100D6000D06A52CF8695869550E2859FC0011124A6
:100D7000C370DD2721E030E0A90102C0440F551FF8
:100D8000CA95E2F7EA01C82BD92BDA683DCF8C2F40
:100D90000E942305C82FD0E0DC2FCC27CC27DF71A1
:100DA000D06232CFD82FCC27C06FD06A2DCF8F70B2
:100DB0000E94230534E0D695C7953A95E1F7CF70A8
:100DC0009C2FEC01D06920CFC9E3D0E01DCFC2EE4B
:100DD000D0E01ACFC6EED0E017CF80E00895F894A7
:100DE000E82FE295EF70F0E041A18F7021E030E054
:100DF000B90102C0660F771F8A95E2F7CB01962FE3
:100E00009095942391A392A1892B82A3789408951D
:100E1000809192049091930490930F0180930E011E
:100E20000895A0E0B0E0E7E1F7E00C942636FB017E
:100E30008FEF9FEF4430510508F465C04091B60430
:100E400041FB882780F990E0880F991F42FBAA2474
:100E5000A0F8B12CAA0CBB1CAA0CBB1C8A299B298C
:100E600040FB882480F8912C8829992943FBCC24C5
:100E7000C0F8D12C53E0CC0CDD1C5A95E1F78C293D
:100E80009D2944FBEE24E0F8F12C64E0EE0CFF1CFD
:100E90006A95E1F78E299F2945FB002700F910E0AC
:100EA00075E0000F111F7A95E1F7802B912B46FB1F
:100EB000222720F9C22F20E0D22FA6E0CC0FDD1F81
:100EC000AA95E1F78C2B9D2B47FB442740F920E89E
:100ED000429FA0011124842B952B2091B704322F1F
:100EE0003170932B26952170B22FBB0FA0E08A2B77
:100EF0009B2B092E000CAA0BBB0B80839183A28332
:100F0000B38380E090E0CDB7DEB7ECE00C944236DE
:100F1000FC01680F791F8FEF91E3E617F70709F4DB
:100F200008952191822728E030E087FF08C0880FCC
:100F300089272150310921153105B9F7EECF880FE6
:100F4000F8CFAC0123E0969587952A95E1F78E714D
:100F50009927FC01EF52FE4F0190F081E02D4F7078
:100F6000552721E030E002C0220F331F4A95E2F7F7
:100F7000662341F0E22BF32B8F529E4FDC01ED9361
:100F8000FC93089520953095E223F323F5CF10923A
:100F9000F4031092F303EAE5F4E08581811102C0C5
:100FA00014821682379684E0E239F807B1F7089583
:100FB000AC013091F6036091F503232F621301C059
:100FC0000895822F90E0FC01EE0FFF1FE551FC4FCA
:100FD0000190F081E02DE417F50791F467E0649F3C
:100FE000F001659FF00D1124E65AFB4F41E0448368
:100FF0002313E6CF0196837099278093F603089513
:101000000196282F2370DACFFC0184818623811179
:101010000AC082818823B9F06823908593FF05C0B8
:1010200081E061110FC080E00895282F22952F7074
:101030008F70282B962F92959F706F70962B81E062
:101040002913F1CF089581E0FDCF2091CE01309199
:10105000CF012817390771F09093CF018093CE010B
:10106000E0913A03F0913B03309721F00680F7813D
:10107000E02D099508952091CC013091CD012817DC
:10108000390771F09093CD018093CC01E0913A0340
:10109000F0913B03309721F00084F185E02D099514
:1010A00008952FB7F8948091C8019091C901A0913B
:1010B000CA01B091CB012FBF089580919404909103
:1010C0009504892B91F00E9451082091440330919E
:1010D0004503AC01421B530B9A0181E040919404FB
:1010E000509195042417350708F480E08170089525
:1010F000CF93C82F8091B70482FF0CC08091D40396
:101100008C1741F00E94510890934503809344034B
:10111000C093D403CF910895A4E0B0E0E2E9F8E0F1
:101120000C9430368FB7F8942091C8013091C901E2
:101130004091CA015091CB0129833A834B835C8350
:101140008FBF69817A818B819C812496E2E00C9427
:101150004C360E948C0808959C014FB7F8948091FA
:10116000C8019091C901A091CA01B091CB014FBFB4
:10117000821B930B0895A4E0B0E0E1ECF8E00C943E
:101180002E36462F572FBC012FB7F8948091C801F7
:101190009091C901A091CA01B091CB012FBF8C01E0
:1011A0009D01041B150B260B370BC901B8012496B2
:1011B000E4E00C944A36A6E0B0E0E1EEF8E00C94EE
:1011C0002C367C010091B2031091B3032091B4033B
:1011D0002E838091B5038D83B801822F9D810E945B
:1011E000BB08643F71408105910518F10E948C088D
:1011F0008B018E839D8382E390E0A0E0B0E00093BA
:10120000DF021093E0022E812093E1022D812093D2
:10121000E2028093DB029093DC02A093DD02B093A4
:10122000DE02E092B003F092B1032696E6E00C9461
:10123000483684EF91E0A0E0B0E0E1CF87E797E7A0
:10124000909301088093000888E19AE00FB6F89423
:10125000A895809360000FBE90936000FFCF8091AF
:10126000C701089508950895FC019B018091BA017A
:101270009091BB018617970740F0672B29F4809166
:10128000E8008E778093E800C90140E0009741F4C0
:10129000411106C08091E80082FF2FC080E00895D0
:1012A00020910F032223A9F12530A9F12091E80014
:1012B00023FD2DC02091E80022FDECCF2091E80015
:1012C00020FFE4CF3091F3002091F200009719F055
:1012D0002830310558F041E02830310509F040E070
:1012E0002091E8002E772093E800D0CF41914093E1
:1012F000F10001972F5F3F4FE9CF80910F038823C3
:1013000041F0853041F08091E80083FFC3CF81E058
:10131000089582E0089583E008958091B40187FFE5
:1013200013C08091E80082FF06C08091E8008B77AF
:101330008093E80004C080910F038111F2CF0895DB
:1013400080910F038823D9F38091E80080FFF8CFC4
:101350008091E8008E77ECCF2091E4003091E50099
:1013600095E6A9018091EC008170882331F080918D
:10137000E80080FF06C080E008952091E80022FD8B
:101380001BC080910F03882391F0853091F08091EC
:10139000EB0085FD10C02091E4003091E50042177C
:1013A000530701F391509111DCCF84E0089582E05E
:1013B000089583E0089581E00895E8EDF0E08081EC
:1013C0008E7F80831092E2001092DA001092E1008A
:1013D000A0EEB0E08C9181608C9380818F778083C8
:1013E00019BCA7EDB0E08C918E7F8C9380818F7EAD
:1013F00080831092B3010895EF92FF920F931F9391
:10140000CF938C017B010E94AC09C82F81110EC0C3
:101410008091E80085FD11C08091E8008E7780936F
:10142000E8000E94AC09882399F3C82F8C2FCF9134
:101430001F910F91FF90EF900895F80180818093A4
:10144000F100F1E0EF1AF108E114F10479F30F5F14
:101450001F4FDECFCF9320910F032430F1F4209162
:10146000E900C091EC00C795CC27C7952F70C22B1F
:1014700022E02093E9002091E80020FF0BC040E02B
:1014800050E060E270E00E94FC098091E8008E77F5
:101490008093E800CF70C093E900CF910895982F12
:1014A000E42FE2709093E900891308C0762F242F6F
:1014B00050E0E11111C091E0980FF4CF7091EC0071
:1014C0002091ED005091F00021FD06C09F5F973004
:1014D00049F78093E90008953091EB003E7F309307
:1014E000EB003091ED003D7F3093ED003091EB004B
:1014F00031603093EB007093EC002093ED0050933B
:10150000F0002091EE0027FDE1CF0895A0E0B0E0CB
:10151000ECE8FAE00C942A36C8EDD0E088818F7EA2
:101520008883E7EDF0E080818160808384E082BF82
:1015300081E08093B30188818E7F888302EE10E082
:10154000F80110821092DA0081EEC82ED12CF6013B
:10155000108288818F7788838881806888838881DA
:101560008F7D888319BC10920F031092B2011092E4
:10157000CF021092B10190EEE92EF12CF70180819B
:101580008B7F808388818160888342E060E080E097
:101590000E944F0AF60180818E7F8083F80180814E
:1015A00081608083808188608083F70180818E7F65
:1015B0008083888180618883CDB7DEB7E8E00C94B2
:1015C00046369C012115310509F408958FE99FE005
:1015D0000197F1F700C0000021503109F3CF80914D
:1015E0001003811110C08091D80080618093D800D1
:1015F0008AE18A95F1F700C08091D90080FF0AC086
:1016000081E08093100381E090911003913009F004
:1016100080E0089582E0809310030E94DD0910921B
:101620000F03F1CF0E94EF0A882359F0E0913A03AB
:10163000F0913B03309729F00190F081E02D09955E
:10164000089580E00895CF93DF93D82FC92F81E0CC
:101650008093E9008FEF9091E80095FD07C095ED2C
:101660009A95F1F7000081508111F5CF8091E80043
:1016700085FD03C0DF91CF91089540E050E068E020
:1016800070E08D2F9C2F0E94FC098091E8008E77DE
:101690008093E80088E0ED2FFC2FAFEBB1E00190E4
:1016A0000D928A95E1F7E6CF8093BC017093BE015D
:1016B0006093BD0180910F038430F9F48093E900B9
:1016C0008FEF9091E80095FD07C095ED9A95F1F7A1
:1016D000000081508111F5CF8091E80085FF0DC099
:1016E00040E050E063E070E08CEB91E00E94FC0988
:1016F0008091E8008E778093E8000895BC0183E034
:101700000E94540B0895BC0184E00E94540B08957C
:10171000A0E0B0E0EEE8FBE00C942836F82EE92ECD
:10172000B62EA72E8A0180911403CC24C394D12C09
:101730008A3018F48AE0C82ED12CC1E0D0E06B2D9D
:101740007A2D8F2D9E2DF8010995811116C02196B5
:10175000CC16DD0694F0CC9FC001CD9F900D900D6E
:10176000112420E030E045E34A95F1F700002F5FB7
:101770003F4F28173907B9F7E2CFCDB7DEB7EAE018
:101780000C94443683E290E00E94C2368A3189F498
:1017900084E290E00E94C236833D59F485E290E0F5
:1017A0000E94C23691E0823A09F090E0892F817060
:1017B000089580E0FCCF0F931F93CF93DF93843085
:1017C00030F56A3020F5463010F5C42FD0E0CC0F4C
:1017D000DD1F2CE0629FC00DD11D112438E7839FCF
:1017E000C00DD11D1124CE0187960E94C236082F4C
:1017F00010E0102F0027CE0188960E94C236980173
:10180000282BC901DF91CF911F910F91089580E09E
:1018100090E0F8CF0F931F93CF93DF93843078F548
:10182000623068F528E0829F8001112434E0639FD4
:10183000B0011124060F171F095F1D4FC801442373
:10184000A1F00E94C236C82FD0E0DC2FCC2781E067
:1018500090E0800F911F0E94C2369E01282BC90183
:10186000DF91CF911F910F91089502960E94C23689
:10187000C82FD0E0DC2FCC2783E090E0EACF80E0D7
:1018800090E0EECF2091EE023091EF02232BC9F4CD
:10189000703F39F4603FA9F48091CC029091CD0261
:1018A0000895843070F47A3038F4663050F4462F5E
:1018B000672F0E94DB0B08957D3F31F441E06230D9
:1018C00040F080E090E008957C3FD9F76230C8F79F
:1018D00040E00E940A0C0895A0E0B0E0E2E7FCE0DE
:1018E0000C942B367C010091D8038091D703082BF0
:1018F000C7E0D0E010E0C8010C2E02C09595879596
:101900000A94E2F780FD09C02197A8F7D12C8D2D0C
:10191000CDB7DEB7E7E00C944736DC2EB7018C2F4D
:101920000E94420C0E946605019771F3F0CFCF939D
:10193000DF93D82FC92F0E946C0C6D2F7C2F0E9433
:10194000420C0E946605DF91CF910895FC018681CB
:101950009781009729F00E9466050E94330408953C
:10196000808191810E94970CF8CF1F93CF93DF93D2
:10197000182FD92F662399F0442389F00E946C0C0C
:10198000C82F682F812F9D2F0E94A704612F7D2FC4
:101990008C2F0E94420CDF91CF911F9108950E94DD
:1019A000C304C82FF3CFFC01462F8681978100978F
:1019B00029F46281808191810E94B50C08950F9372
:1019C0001F93CF93DF9302E914E0C7E2D2E0CE0188
:1019D0000E94C236F80181938F012196CB34F2E048
:1019E000DF07A9F7C3E8D3E0FE0185919491009742
:1019F00011F0FC0109952C96F4E0C331DF07A1F743
:101A0000DF91CF911F910F9108958091D50390910F
:101A1000DA03892B8093A6018091D403882309F1EE
:101A20008091940490919504892B29F00E945D087F
:101A300081110E9418058091A6019091D403892BF1
:101A40008093A60120E088EA91E0FC0130810196B4
:101A500031112F5F31E08E3A9307B9F721110E94BF
:101A600018058091AC0380959091A60189239091EF
:101A7000AB03892B8093A60148E050E06CE373E050
:101A800086EA91E00E949536892BA9F088E0E6EA83
:101A9000F1E0ACE3B3E001900D928A95E1F7E091BB
:101AA0003A03F0913B03309731F00280F381E02D4F
:101AB00086EA91E009950895882339F09091D5033D
:101AC000892B8093D5030E94050D0895882339F052
:101AD0009091DA03892B8093DA030E94050D089513
:101AE000882321F00E9410050E94050D0895882387
:101AF00041F080959091DA0389238093DA030E9464
:101B0000050D0895CF93C82F882399F08CEF8C0F83
:101B1000813A88F4E8EAF1E08EEA91E02191C21777
:101B2000A1F18E179F07D1F78C2F0E94EA040E9423
:101B3000050DCF91089580E28C0F883068F4C7704E
:101B400021E030E001C0220FCA95EAF78091D50369
:101B5000822B8093D503EBCF8BE58C0F833038F449
:101B60002C2F2452330BC9010E942508E2CFC85AFA
:101B7000C731F8F6EC2FF0E0EE0FFF1FEA58FE4FEA
:101B8000808191810E943B08D4CF8C2F0E94030555
:101B90000E94050DC9CFCF93DF93EC01805E9109C0
:101BA000089720F066E67DE0209711F46CE57DE073
:101BB000CE010E9429048C2F0E94820DDF91CF91CB
:101BC0000895662329F02091DA0322602093DA0336
:101BD0009C013056211540E2340720F0305E21157B
:101BE000304108F499270E94CB0D0895882339F1DC
:101BF0009CEF980F913A28F40E9403050E94050D6E
:101C0000089590E2980F983050F4877091E001C0E9
:101C1000990F8A95EAF7892F0E941005EFCF9BE56F
:101C2000980F933028F480E090E00E9425080895F2
:101C3000885A873120F480E090E00E943B080895A4
:101C4000CF93DF93EC010E94F60DCE01805E9109E7
:101C5000089720F067E77DE0209711F460E77DE0CA
:101C6000CE010E942904DF91CF9108950F931F9315
:101C7000CF93C82F0091B2041091B304893321F09F
:101C80000091B0041091B1048C2F0E94820D0115B7
:101C9000110539F48C2F0E94F60DCF911F910F91F1
:101CA00008958FE99FE00197F1F700C0000001500F
:101CB0001109EDCFA0E0B0E0E0E6FEE00C942B3699
:101CC000EC019881992309F49CC09130E1F5998148
:101CD0008A81913021F422960E94360E05C09230FE
:101CE00029F422960E94820D2196EBCF933021F4A5
:101CF00022960E94F60DF8CF943011F02196F4CF81
:101D0000229620E030E06AE0AE014F5F5F4F8053E3
:101D1000990B8A30910560F02115310529F38FE97F
:101D20009FE00197F1F700C0000021503109F4CF86
:101D3000629FF001639FF00D11249C012E0F3F1F45
:101D40008981EA01E1CFE92FF0E0E15CF84FD4901E
:101D5000292F26952695269530E0F901E15DF84F6B
:101D600084919770F901E15EF84FE490F12C092E0F
:101D700002C0F594E7940A94E2F741E0E422FF24DC
:101D8000F901E15FF84F049110E0092E02C01595AA
:101D900007950A94E2F701701127E82FF0E002C0DE
:101DA000F595E7959A95E2F7E0FD0CC0E114F10492
:101DB000A1F48D2D0E94360E0115110509F494CF62
:101DC0008CE28ACF81EE0E94820DE114F10479F455
:101DD0008D2D0E94360E81EE07C086EE0E94820D88
:101DE0008D2D0E94360E86EE0E94F60DE5CF86EE12
:101DF0000E94820D8D2D0E94360E86EE0E94F60DF9
:101E0000EACFCDB7DEB7E7E00C9447360F931F93C8
:101E1000CF93DF93C62FD42F122F8823A9F060937E
:101E2000D2030E9451089093AF018093AE01C77016
:101E300081E001C0880FCA95EAF70E945C0DDF912E
:101E4000CF911F910F9108958091D203681336C0EE
:101E50008091AE019091AF010E94AC082091AA043C
:101E60003091AB048217930748F5CD130CC0812F36
:101E70000E94360ED77081E001C0880FDA95EAF72C
:101E80000E94700DDCCFC77001E0802F01C0880F69
:101E9000CA95EAF70E94700D80E28D0F883050F4E9
:101EA0008D2F877001C0000F8A95EAF7802F0E945E
:101EB0005C0DDDCF812F0E94360EC1CFC77081E04F
:101EC00001C0880FCA95EAF7DBCF80E090E00E945E
:101ED000250880E090E00E943B081092DA030E94FF
:101EE000050D08951092D503E8EAF1E086E0DF01E0
:101EF0001D928A95E9F70E94650F08950E94720F5E
:101F00002FEF84E39CE0215080409040E1F700C037
:101F1000000088E19AE00FB6F894A89580936000DD
:101F20000FBE90936000FFCFAAE2B0E0EAE9FFE0C5
:101F30000C942F3684EB91E0FC0101962091F10086
:101F4000208321E08C3B9207B9F78091B50189305D
:101F500009F456C0C8F4823009F4B3C0833009F4E0
:101F600082C0813071F18091E80083FFE7C08091E9
:101F7000B4019091B5019A3008F0E0C0E92FF0E08B
:101F8000E25FF84C0C946B368A3009F489C08B30D0
:101F900051F78091B401813231F78091B80190916D
:101FA000B901892B01F78091E800877F8093E800D1
:101FB0000E948D098091B601809300010E94720FEA
:101FC000D2CF8091B401813A71F68091E800877F89
:101FD0008093E8008091B8019091B901892B61F05C
:101FE00060E080E090E070E00E9434098091E800B9
:101FF0008B778093E800B7CF68E08FEB91E0F3CF69
:102000008091B401813209F0AECF8091B8019091F6
:10201000B9018D7F892B09F0A6CF8091E800877FD9
:102020008093E8008091E80082FF18C09091F3004F
:102030008091F200029731F48091F100813011F02B
:10204000863021F48091F1008093C7018091E800EF
:102050008B778093E8000E948D0985CF80910F03D4
:102060008111E0CF80CF8091B401813A09F07BCF1C
:102070008091B8019091B901892B09F074CF8091BA
:10208000E800877F8093E8008091E80080FFFCCF24
:10209000809100018093F1008091E8008E77D9CF84
:1020A0008091B401813209F05ECF8091E800877F92
:1020B0008093E8000E948D098091B7018093B00160
:1020C00052CF8091B401813A09F04DCF8091E80060
:1020D000877F8093E8008091E80080FFFCCF8091AB
:1020E000B001D8CF803889F0823841F58091B801AD
:1020F0008F70873018F58093E9008091EB0085FBA5
:10210000882780F91092E90006C08091B101909172
:10211000CF02911182609091E800977F9093E80040
:102120008093F1001092F1008091E8008E7723C037
:10213000811116C08091B601813011F18091E800C3
:1021400083FF0AC08091E800877F8093E800809138
:10215000EB0080628093EB00AA96E3E00C944B3690
:10216000823061F78091B601882389F01092E900EE
:102170008091E800877F8093E8000E948D09DECF80
:1021800081E0933009F080E08093CF02EFCF80911F
:10219000B8018F702FEF280F263080F68093E9006A
:1021A0002091EB0020FFE2CF933031F48091EB00DF
:1021B00080628093EB00DACF9091EB009061909376
:1021C000EB0021E030E0A90102C0440F551F8A95C1
:1021D000E2F74093EA001092EA008091EB008860F9
:1021E000E8CF8111ABCF1091B6011F778091E3004A
:1021F0008078812B8093E3008091E800877F809333
:10220000E8000E948D098091E80080FFFCCF80915A
:10221000E30080688093E30083E0111101C082E055
:1022200080930F038BCF8058823008F087CF409186
:10223000B6015091B7014C3D83E0580799F583E012
:102240008A838AE289834FB7F894DE01139620E0EF
:102250003EE051E2E32FF0E050935700849120FFDD
:1022600003C082958F703F5F8F708A30C8F0895CA1
:1022700090E08D939D932F5F243161F74FBF809144
:10228000E800877F8093E8006AE270E0CE01019663
:102290000E9434098091E8008B778093E8004ECF4C
:1022A000805DE6CF8091B8019091B901252F332749
:1022B0002330310509F44AC078F52130310509F49D
:1022C00083C08BE590E0E0E4F1E02230310509F0D5
:1022D00035CF2091E800277F2093E8002091BA01B4
:1022E0003091BB018217930708F49C0140E021154F
:1022F000310509F06EC041116CC08091E80082FD8B
:10230000C9CF80910F03882329F2853019F280917B
:10231000E80083FFF2CFBECF2132310509F445C07A
:102320002232310509F00ACF8330910508F006CF3B
:10233000FC01EE0FFF1FE35BFE4F0190F081E02DEB
:10234000865B9E4FDC018C9190E010C0CA019927FA
:10235000423019F18330910568F4892BB1F4E5EF2F
:10236000F1E0E4918E2F90E0E5EFF1E0009709F4C1
:10237000E5CEAFCF039709F0E1CEEDEAF1E0E491CD
:102380008E2F90E0EDEAF1E0F1CFE9EDF1E0E4919C
:102390008E2F90E0E9EDF1E0E9CFEBECF1E0E49194
:1023A0008E2F90E0EBECF1E0E1CF8330910508F067
:1023B000C5CEFC01EE0FFF1FED5AFE4F0190F081DC
:1023C000E02D89E090E085CF82E190E0EBE9F1E05B
:1023D00080CF80910F03882309F45CCF853009F406
:1023E00059CF8091E80083FD55CF8091E80082FDB0
:1023F00084CF8091E80080FF7ACF9091F3008091A4
:10240000F2002115310519F08830910550F041E0B6
:10241000089709F040E08091E8008E778093E8000B
:1024200066CF44914093F1003196215031090196D5
:10243000E8CF803809F082CE8091E800877F8093D2
:10244000E8008091B2018093F1006ECE811176CECA
:102450001091B601123008F071CE8091E800877FAC
:102460008093E8001093B2010E948D091123D1F0EE
:1024700084E080930F0342E061EC81E00E944F0A08
:1024800042E261EC84E00E944F0A42E261EC82E0A9
:102490000E944F0A42E260EC83E00E944F0A809162
:1024A0000F034CCE8091E30087FDE2CF81E0E1CFC6
:1024B0008093D7030E94650F08958093D8030E94EC
:1024C000650F089521E030E001C0220F8A95EAF7F8
:1024D0008091D803822B0E945D1208959091B704D9
:1024E00092FF10C098E0899F90011124622B6093A5
:1024F000E4030E9462120E9451089093E6038093C5
:10250000E50308950E946212089521E030E0A901D8
:1025100002C0440F551F8A95E2F7CA018095909139
:10252000D80389230E945D1208952091E4038095C9
:1025300082238093E403982F9770911117C030E0A5
:10254000482F082E000C550B2417350779F0909171
:10255000B70492FF0BC08595859585950E948512DD
:102560001092E4031092E6031092E503089580911F
:10257000D803982F9670963021F488600E945D12DF
:102580000895877FFBCF80913B01877F80933B013C
:102590009091DA039D7F9093DA0384FF08C08F7EC9
:1025A00080933B018091D50382608093D503809115
:1025B0003B0185FF08C08F7D80933B018091D5034F
:1025C00080628093D5030E94050D0895CF92DF921B
:1025D000FF920F931F93CF93DF93EC018B01F42EA7
:1025E00080913B0182FF6BC0C090C803D090C903AB
:1025F000CC16DD0619F0209709F061C080913B01EF
:102600008B7F80933B01C1E081FD10C08091C603A8
:102610009091C7039801281B390BC1E080910E01EE
:1026200090910F012817390708F4C0E0C17080911C
:102630003B01C0FB81F980933B016C2FC6010E94D6
:10264000A1078091D50381FF08C080913B01806183
:1026500080933B0182E00E9410058091D50385FFA5
:1026600008C080913B01806280933B0180E20E9420
:1026700010056C2FC6010E94E10DFF2031F0809102
:10268000AD0485FF02C086FF33C08091B0049091F5
:10269000B1040E94E10A8091C8039091C9039C0192
:1026A0003056211540E2340720F0305E21153041CC
:1026B00008F499270E94200E0E94C31215C0CE0173
:1026C0009056811520E2920720F0905E811590418E
:1026D000B8F4CE0199270E94200E8091C8039091F2
:1026E000C903C817D90741F31093C7030093C60362
:1026F000DF91CF911F910F91FF90DF90CF900895C0
:10270000CE01E9CF1F93CF93DF93182FA091AE0393
:10271000B091AF03109709F44AC01092B103109220
:10272000B0031092AC031092AB031696CD91DC91DE
:102730001797CE019A9581159F4108F4D07ED1E07C
:10274000C11101C0D0E01996ED91FC911A97309714
:1027500031F01B966D917C9180E00995D823DD23A3
:1027600039F08CEF8C0F813A30F58C2F0E940305E5
:102770001123A9F0E091AE03F091AF03808584FDB1
:102780000EC08091AD03882351F0808191819C011E
:10279000215031092C3A3D4510F40E94DB080E947B
:1027A000050D1092AF031092AE031092AD03DF91AE
:1027B000CF911F9108950E94050D8C2F0E94F60D58
:1027C000D7CFCF93682FC92F84E090E00E94D036F6
:1027D0006C2F82E290E00E94D036CF9108959091C4
:1027E000B70492FB222720F9281769F080FB92F9A1
:1027F0009093B7048091B6049091B7040E94E113BE
:1028000082E00E9495120895CF92DF92EF92FF929C
:10281000FB018FEF9FEF4430510508F47FC0C0806B
:10282000D180E280F3800E94720FD701C601B69575
:10283000A795979587958170282F220FD701C601FC
:1028400081709927AA27BB27822BB701A60132E006
:1028500076956795579547953A95D1F74170440F0E
:10286000440F842BB701A601E3E076956795579551
:102870004795EA95D1F74170440F440F440F842BDC
:10288000B701A601F4E07695679557954795FA95B7
:10289000D1F741704295407F842BB701A601A5E096
:1028A0007695679557954795AA95D1F741704295CA
:1028B000440F407E842BB701A601B6E0769567955C
:1028C00057954795BA95D1F741704295440F440FFB
:1028D000407C842BB701A60197E0769567955795C4
:1028E00047959A95D1F7479544274795842B809330
:1028F000B604D1FA882780F9880F9D2D9170892B15
:102900009091B7049C7F892B8093B7048091B60483
:102910009091B7040E94E11380E090E0FF90EF9067
:10292000DF90CF900895882381F06AE183E290E000
:102930000E94D03663ED84E290E00E94D03662EAD5
:1029400085E290E00E94D03608956FEF83E290E038
:102950000E94D0366FEF84E290E00E94D0366FEF95
:10296000EFCF1F93CF93DF93962F122F632F8430D7
:10297000D8F49A30C8F44630B8F4C42FD0E0CC0F65
:10298000DD1F2CE0929FC00DD11D112498E7899F77
:10299000C00DD11D1124CE0187960E94D036612F23
:1029A000CE0188960E94D036DF91CF911F91089575
:1029B0001F93CF93DF93962F122F632F8430D0F481
:1029C0009230C0F428E0829FE001112424E0929F1D
:1029D000C0011124C80FD91FC95FDD4FCE014423A8
:1029E00069F00E94D03681E090E0612F8C0F9D1F2E
:1029F0000E94D036DF91CF911F91089502960E94D8
:102A0000D03683E090E0F1CFCF93DF93CBEED2E0EE
:102A100060E0CE010E94D0362196C11584E0D8072F
:102A2000B9F7DF91CF9108950F931F93CF93DF9361
:102A300002E914E0C7E2D2E0CE010E94C236F801FA
:102A400061918F01861719F0CE010E94D036219630
:102A5000CB34F2E0DF0781F7DF91CF911F910F9127
:102A60000895E2E9F4E0128E138E8FEA90E09183EC
:102A7000808385E0848F28E833E13383228322E357
:102A800030E0378B268B24E630E0318F208F158E97
:102A90002AE030E0378F268F20E530E031A320A3F5
:102AA00082A30E9414150E94720F1092B704109214
:102AB000B60480E084608093B70480E094E00E94D4
:102AC000E1130E94DF0C0895A3E1B0E0EAE6F5E12E
:102AD0000C9425361A821982FE01339688E0DF01B4
:102AE0001D928A95E9F789E6A82E81E0B82E8E011D
:102AF0000F5F1F4F9EE6E92E91E0F92E4801CC248E
:102B0000C394D12CF50181915F018F3F09F442C03C
:102B1000F894E82FE295EF70F0E021A18F70A60104
:102B200002C0440F551F8A95E2F7CA01922F982BD5
:102B300091A392A18095892382A3789400C0EEE6A8
:102B4000F1E031E0712C21912F3F09F450C0A22F08
:102B5000A295AF70A05EB0E08C9190E02F7002C0A3
:102B6000959587952A95E2F78170811140C0832F52
:102B7000782A330F51E0E437F50729F7F50131974B
:102B800080818F3F11F00E94EF0680EA8A95F1F76D
:102B9000D8017C920F5F1F4FEA14FB0409F0B2CFFB
:102BA0004AE050E0B40180E393E00E9495367C0156
:102BB00010912F03892BE9F08AE0F401A0E3B3E040
:102BC00001900D928A95E1F781E0809313030E94B2
:102BD000510880931103909312030E94AC0805974B
:102BE00008F074C081E06396EDE00C94413680E01B
:102BF000BFCF80911303811160C00E94EF0AE09162
:102C00002F03811175C0F0E0EB5DFC4F85E0A4E07F
:102C1000B3E001900D928A95E1F765E070E084E001
:102C200093E00E948807809303034091220350E0C1
:102C30006091210370E0615E7C4FCE010B960E9493
:102C4000A2368B8580930A0361E070E0CE010B967B
:102C50000E94880780930903C0900B03D0900C0357
:102C6000E0900D03F0900E0380911B0390911C03E4
:102C7000A0911D03B0911E03C816D906EA06FB06F3
:102C800009F477C0C0921B03D0921C03E0921D038D
:102C9000F0921E030E94EF0A81116BC00E948C0803
:102CA000C61AD70AE80AF90AC0921703D092180385
:102CB000E0921903F0921A035CC080911103909185
:102CC00012030E94AC08059708F497CFA12FB0E03B
:102CD000AB5DBC4F85E0E0E3F3E001900D928A9597
:102CE000E1F710921303E114F10409F07BCF85CFD3
:102CF0001C861B869E01235F3F4F83E0D9011D92F6
:102D00008A95E9F70E2F10E00B5D1C4F809114039C
:102D10008A3088F57E01BBE0EB0EF11C4CEA57E1EE
:102D2000B701C8010E94880B6701882309F446C0D7
:102D300041E35BE2B701C8010E94880B8823F1F1EF
:102D400048ED57E1B701C8010E94880B8823B1F113
:102D5000109214038091240390E045E050E0B60106
:102D60008B5D9C4F0E94953621E020932303892B95
:102D7000C1F480E038CF80911503909116030E9432
:102D8000AC08843F914030F680912303882389F377
:102D9000FE013B9685E0DF011D928A95E9F71092CE
:102DA0002303A0912403B0E0AB5DBC4F85E0FE019E
:102DB0003B9601900D928A95E1F714CF8091140310
:102DC0008F3F39F40E9451089093160380931503A6
:102DD000DBCF8F5F809314038A3008F4BBCFF2CF30
:102DE0009C01CB01BA01F9013296459154916417C7
:102DF000750748F0F9013496659174910E94A236E6
:102E000080E090E008958FEF9FEF08959C01DA0134
:102E10000296FC0145915491FC0185919491A8176B
:102E2000B90758F0F9013496859194910E94A23621
:102E30000E94141580E090E008958FEF9FEF0895B1
:102E4000A5E0B0E0E6E2F7E10C942236462E4A0116
:102E5000522EC32E3701A82E880FBB08C5010E9431
:102E6000AB35D82E882309F470C0C50133E0880F34
:102E7000991F3A95E1F7FC01EE5EFE4F2381422F48
:102E800050E0222311F041E050E08E5E9E4FDC01C5
:102E900014966D917C916D5F7C4FCE0101960E94DE
:102EA000A236D4018D919D910D90BC91A02DBC01B5
:102EB000CD010E94BB086A837B838C839D8364362B
:102EC00071058105910538F4B301C8010E94880796
:102ED00099818917D1F1E42C042C000CFF08C7015B
:102EE0000E94AB35D82E811106C0D12C8D2D259690
:102EF000E0E10C943E36C70123E0880F991F2A9524
:102F0000E1F7FC01EE5EFE4F438150E0641675066A
:102F100008F4A3018E5E9E4FFC01648175816D5F94
:102F20007C4F852D9C2D0E94A236B301C8010E94C2
:102F3000880799818913D9CF0E948C08D4016D9399
:102F40007D938D939C931397D1CFA301B801852DC9
:102F50009C2D0E94A236CACFA5E0B0E0E2EBF7E1DB
:102F60000C942A366B0185E0E82EF12C04E013E086
:102F70009E012F5F3F4F4FEF52E061E080E00E94E3
:102F80002017882349F095E0FE013196AAEFB2E0C0
:102F900001900D929A95E1F795E0EAEFF2E0D60103
:102FA00001900D929A95E1F72596E8E00C9446364B
:102FB000A8E0B0E0EEEDF7E10C942F368091F0023E
:102FC0009091F102A091F202B091F302BC01CD0107
:102FD0000E94BB0811E06436710581059105A8F1D6
:102FE0000E94EF0A8823B1F10E948C08462F572FC8
:102FF000BC014E5F5F4F6F4F7F4F49835A836B8396
:103000007C8380913301909134018D5F9C4F20919E
:103010003201422F50E0253010F044E050E0BE0174
:103020006F5F7F4F0E94A23684E090E00E94AB3534
:10303000182F882351F00E948C086093F00270933F
:10304000F1028093F2029093F302812F2896E3E03D
:103050000C944B360E948C086D837E838F839887F7
:1030600040911703509118036091190370911A034E
:103070008D819E81AF81B885480F591F6A1F7B1FC4
:10308000B8CFAAE0B0E0E7E4F8E10C942A36ECE728
:10309000F2E080E5DF011D928A95E9F7EAE5F4E0C8
:1030A00088E3DF011D928A95E9F78CE7C82E82E05C
:1030B000D82E7F010BE412E0F701D182C0824AE0F2
:1030C00050E0B801CE0101960E94B23688E0FE01C0
:1030D0003196D60101900D928A95E1F789859A85FE
:1030E000D70113969C938E931297BAE0CB0ED11C06
:1030F000E7E0EE0EF11C065F1F4F0B39F2E01F07F1
:10310000D9F62A96E8E00C944636AAE0B0E0EBE85F
:10311000F8E10C94263604E012E082EFC82E81E03C
:10312000D82E9BE9E92E92E0F92E27E0922E31EF7E
:10313000A32E31E0B32E88248394D6010D931D93E2
:103140006D014AE050E0B701CE0101960E94B2360F
:10315000F8013896DF01892D1D928A95E9F789815A
:103160009A81D80111969C938E938F8112968C939D
:1031700012978D8113968C931397888514968C9350
:103180001497898515968C9315978B819C8117963A
:103190009C938E9316978A8587FD04C01E96BC92D9
:1031A000AE921D9780FF02C0F801808681FF07C0A4
:1031B000D80118969C911897926018969C9382FF5C
:1031C00004C0F80190859460908783FF07C0D80100
:1031D00018969C911897986018969C9384FF04C049
:1031E000F80190859061908785FF07C0D8011896F7
:1031F0008C911897806218968C93015F1F4FBAE0EC
:10320000EB0EF11CEBEEEE16E2E0FE0609F095CFB8
:103210002A96ECE00C944236A4E1B0E0E2E1F9E158
:103220000C9421366090EC027090ED0281E090E009
:103230009093ED028093EC0299EF892E91E0992E04
:10324000A12CB12CE12CF12C6501412C5E2C15C078
:10325000F80125913491432D642D852D0E94B114E0
:103260000E5F1F4F339486E03812F2CFA6E0CA0EED
:10327000D11C4394BAE04B1639F08601000F111FA0
:103280000F5E1D4F312CE4CF8401D12CF801259124
:10329000349141E06D2D852D0E94D814F8013296AD
:1032A0002591349140E06D2D852D0E94D8140C5F3E
:1032B0001F4FDD2009F448C08FEFE81AF80AA8E094
:1032C0008A0E911CBCE3AB0EB11C84E0E816F1043D
:1032D00009F0BACF0E943115FE0131968AE0DF0174
:1032E0001D928A95E9F70BE412E07F014AE050E075
:1032F000B801C7010E94F436065F1F4F0B39B2E0D8
:103300001B07A1F7FE013B9689E0DF011D928A951C
:10331000E9F78FEF9FEF988B8F8787E08C8B7F018A
:103320004AE050E0B801C7010E94F436065F1F4F23
:103330000B3EB2E01B07A1F77092ED026092EC0227
:103340006496E1E10C943D36DD24D3949FCF80E078
:103350000E94931460E086E290E00E94D0360E94C2
:103360000C190E94041581E00E949314089568EEE0
:103370007EEF80E090E00E94EE3660E082E090E038
:103380000E94D03660E083E090E00E94D036109238
:10339000D70360E084E090E00E94D03664E082E2EF
:1033A00090E00E94D03660E085E090E00E94D03648
:1033B00060E086E090E00E94D0366FEF87E090E01A
:1033C0000E94D03640E050E0BA0188E090E00E94D0
:1033D000E23660E08DE090E00E94D03640E050E0C0
:1033E000BA0188E190E00E94E23660E087E190E077
:1033F0000E94D03640E050E0BA018CE190E00E949B
:10340000E23660E070E080E290E00E94EE3640E05C
:1034100050E0BA0188E190E00E94E23680E00E942C
:1034200093140E94A71940E050E0BA018FE090E0A9
:103430000E94E23640E050E0BA0183E190E00E9451
:10344000E2360895A5E0B0E0E8E2FAE10C94203617
:103450007C01DC019C9111968C91119713962D9112
:103460003C91232B09F405C189238F3F09F401C145
:1034700061E0C7010E94D30C8C01F70152805520F6
:1034800011F40C94D62382519F45409718F10031D6
:10349000FFE51F0709F4D7C001312FE5120709F432
:1034A000F0C00F352DE5120709F4EDC000364DE5EB
:1034B000140751F00E355DE5150709F0E8C080915D
:1034C0003A01882309F4DFC010923A0180E00E949B
:1034D0008213BEC08FEF93E00E94C2368111B8C044
:1034E0006EEED62ED00E0BEE12E0D1103CC08091C5
:1034F0003D0190913E01A0913F01B091400189832F
:103500009A83AB83BC8368015FEFC51AD50AC801F3
:103510000E94C23689831A82882309F499C08130B7
:1035200009F08BC0580182E0A80EB11CC6010E94B0
:10353000C236D82E8A83882309F48AC0C5010E9426
:10354000C236C82E8FEF8D0D8330D8F4CB82CC20BD
:1035500021F0CE0101960E945A0E580193E0A90E67
:10356000B11C8501D0CF011544E0140709F470C0E7
:10357000C8010E94C2360F5F1F4F8111F4CFDA9449
:10358000B4CF8BEF8D0D833088F55801A3E0AA0EE0
:10359000B11CCB82CC2029F3C5010E94C2368C839A
:1035A0008823D9F0AB80BC80B1E0AB16BFEFBB067F
:1035B00010F0BA2CAA24E6E0DE16A1F0F7E0C5016F
:1035C000DF1649F00E94B02A8091B0049091B104B6
:1035D0000E94E10AC5010E94D42A580124E0A20EEB
:1035E000B11CBFCFC5010E94B02AF7CF44E0D4126E
:1035F000B8CF580154E0A50EB11CC80103960E9433
:10360000C236CC2029F1882319F18150990B4FEF54
:10361000489F9001499F300D1124AC2DA150BB0B48
:103620002A0F3B1F2150310908F49BCFEFE9FFE03F
:103630003197F1F700C00000F5CFCE0101960E944E
:103640005A0E56018ECF81E00E9462120E94B7127C
:103650008091E4038770882361F0D70112968C91E2
:10366000882339F08091B70482FF03C082E00E9472
:1036700095122596E2E10C943C3681E00E94851279
:10368000E5CF82E0E1CF81E080933A01E1CF809104
:103690003A01882309F42FC1480180EE881A910865
:1036A0004090D6038091D503482A8091D403482ABC
:1036B00098E08916910408F0FEC09801277033271E
:1036C00081E090E001C0880F2A95EAF7552009F4BF
:1036D000EFC0482AD7018D919C910E94C30421E03C
:1036E00030E0190102C0220C331C8A95E2F7609089
:1036F000AE037090AF031D82BD81EB2FF0E0EE0FA3
:10370000FF1FEE50FE4FC080D180C114D10409F4D8
:103710008CC1411004C0F6018281811154C1D601CF
:1037200013968C91139790E082219321892B09F4B1
:103730004AC118968C91982F9770911136C1B8E0B4
:103740008B16910408F043C1511037C1F601A080D7
:10375000B1800A151B0509F436C1C614D70409F453
:1037600032C1D6011D96ED91FC91309721F08081F8
:10377000882309F428C1642DC6010E940408882307
:1037800009F421C10A151B0511F4511005C0A1143B
:10379000B10409F024C1512C80E00E948213D09220
:1037A000AF03C092AE0381E08093AD03F601858143
:1037B0008093AC0351100DC0AB2859F080819181EA
:1037C0009C0124503109213A310508F010C10E94B2
:1037D0000305F601A680B780C5019A9581159F4122
:1037E00010F420EEB22277247394C50101978C3A2D
:1037F0009D4508F0712CD6011996ED91FC911A9710
:10380000309731F01B966D917C9181E0099578227B
:1038100081E05826772009F405C1F6018681978159
:103820000E94FF038093AB03C501F8E08F1691045B
:1038300008F0E0C00E94DB080E94050D552009F445
:10384000E2C0D70112968C91882309F459C0809167
:10385000C503882309F454C08091C3039091C40325
:103860000E94AC088C32914008F04AC0C8019056C2
:103870008115E0E29E0720F0905E8115904108F4EA
:1038800011278091C203853008F04DC1E82FF0E088
:10389000EE0FFF1FE854FC4F118300838F5F80936E
:1038A000C2030E9451089093C4038093C303D0CEF7
:1038B000809548220FCF511065C08091B60390913A
:1038C000B7030817190781F41092B7031092B603D3
:1038D0001092B2031092B3031092B4031092B50386
:1038E0001092B1031092B003E091AE03F091AF03D8
:1038F000309709F0AEC0D70112968C918111C9C0E2
:103900008091AD0480FF90C10E9451085C01F701D5
:103910008281882309F45DC180913B0182FF06C04A
:1039200040E0B50180E090E00E94E6120B31FCE53A
:103930001F0709F4FBC00C312CE5120709F435C14F
:1039400090913B01892F8E7F90FF81600A314CE579
:10395000140709F42DC1F701828198013056211511
:10396000F0E23F0728F0305E2115304108F079C1C0
:103970001092C9031092C803882309F4C7C110929A
:10398000D203C4C11093B7030093B6030E948C08FE
:103990006093B2037093B3038093B4039093B50321
:1039A0001092B1031092B00395CEE8E08E16910408
:1039B00088F4552031F081FF06C0D601AD90BC904F
:1039C000CCCE82FDC3CEFD81FF5FFD8395CE51102D
:1039D000F4CFF9CF5520B9F380FFF5CFEECF80912A
:1039E000B6039091B7038A159B0569F7D4CE0E9460
:1039F000F60DEFCE0497813A910540F48A2D0E948E
:103A0000EA04511078CF0E94050D22CE0E94050DC8
:103A1000EFE3FCE93197F1F700C000008A2D0E9426
:103A2000820DEFCF0E94050DECCF6114710409F4F3
:103A300062CF28E082169104C0F4642DC3010E9475
:103A400004088111FECE81E00E948213F701828179
:103A5000FBCE808191810817190709F04CCF109295
:103A6000AD0380E00E94821346CFD3018D919C91DB
:103A700011970817190739F4552089F318968C9176
:103A800085FD39CFEECF552009F435CFF301808580
:103A9000F7CF8091C5038111DFCE08322DE51207E3
:103AA00009F02ECF81E08093C5030E9451089093C6
:103AB000C4038093C3031092C203E8EBF3E08AE0EF
:103AC000DF011D928A95E9F78091AD0480FD1CCF3E
:103AD000D70112968C91882309F418C11092D20351
:103AE0000B354DE5140709F443C208F02AC20E3D18
:103AF0008CE5180709F42FC281E00A359DE5190706
:103B000009F433C201151C4509F000C10E94720F6F
:103B1000FFEF24E34CE0F15020404040E1F700C0CB
:103B200000000E941E091092C503BBCE80913B018C
:103B3000816080933B01D70112968C91882321F0FC
:103B40001092C9031092C803F70192819111D9C153
:103B50000631FCE51F0709F0D9C08091D5033091EB
:103B6000AC0430FF04C0282F24742111D2C1282FA7
:103B70002A7A31FF04C0482F4171411120E0432FC0
:103B8000487032FFC8C1382F3878332309F4C3C1D5
:103B90004111D3C19111CAC18091D303882309F483
:103BA000CEC185E30E9403052ECF80913B018E7F1D
:103BB00080933B010E94C31280913B0180FF9DC115
:103BC000D70112968C918111DCC0033FBCE51B0725
:103BD000DFC080913B018F7E013E110531F0053E33
:103BE000110551F480913B018F7D80933B0180FF53
:103BF0008DC0F7018281C0CEC8019056811550E278
:103C0000950720F0905E8115904158F580913B0119
:103C100082FF7CC08091AF0481FD06C040E0B50109
:103C200080E090E00E94E612F7018281033FFCE50C
:103C30001F0709F4AEC008F4BBC0053FACE51A0786
:103C400009F457C127E245EE66EE063FBCE51B07C7
:103C500069F127E245EE64EE043FECE51E0731F121
:103C600037CFF701828190913B0190FFDDCF083281
:103C70001105F8F40E31110508F08FC09801245099
:103C800031092A313105E0F1882389F11092C90305
:103C90001092C803093D5CE5150731F126E241EEBB
:103CA00061EE073D9CE5190709F04ECF0E94060F13
:103CB000CFCC09331105E8F40D32110508F081C0AD
:103CC0000B32110509F47DC0882389F01092C903D5
:103CD0001092C803083DFCE51F0709F46EC0093DBA
:103CE0002CE5120709F030CF28E241E068C080E0FF
:103CF000F1CF0436110509F464C0811169C094CF75
:103D00009091AD0494FF69C08111C0CFF701868105
:103D10009781009709F42EC10E9466058C01F70176
:103D2000C580C2942FE0C222D2808091E4038770C4
:103D30008823D9F0DD20C9F0812F807F803441F0C5
:103D400090E2900F983088F0803611F4063F69F0C9
:103D50008091B70482FF09C082E00E949512809191
:103D6000E4038770AA24A3948111A12CE12FE2958A
:103D7000EF70103C08F0A0C2F0E0E85EF84C0C9444
:103D80006B361092C9031092C803033FFCE51F076E
:103D900079F426E241EE60EE89CF9091AD0493FF75
:103DA0001CC0882309F4B2CF1092C9031092C80333
:103DB000083D4CE5140709F06DCF27E245EE65EEAE
:103DC00075CF9091AD0492FF08C0882309F4BCCE52
:103DD0001092C9031092C80327CF882309F483C027
:103DE0009091D5038091D403D82ED92A2D2D2D7FE3
:103DF0002223C9F01092C9031092C8032091AD0488
:103E000021FD11C060E0C8010E94A10760E0C80167
:103E10000E94E10D8091D4038D7F0E94780882E09A
:103E20000E94951215CC28E0F701AAECB3E00190AE
:103E30000D922A95E1F71092CC031092CE031092C6
:103E4000CD038090C8039090C90308151905B1F5FA
:103E50002091AD0425FF32C0C0903B01C1FACC24B3
:103E6000C0F8CC2011F026FF29C02091C603309164
:103E7000C703A501421B530B2091AA043091AB0448
:103E800042175307D8F491FF08C080913B0180612D
:103E900080933B0182E00E9410058091D50385FF4D
:103EA00008C080913B01806280933B0180E20E94C8
:103EB00010056C2DC4010E94E10DCACB8D7F0E94BC
:103EC00078081093C9030093C803B092C703A09267
:103ED000C6038D2D8270846090913B01997F892B60
:103EE00080933B019CCF40E0B501C8010E94E612DF
:103EF000AFCB26E241EE62EED9CED70112968C917D
:103F00003BCD1092D20306312CE5120709F425CEE1
:103F1000E7CD20E02ECE442319F0827281113ACEF3
:103F2000992309F439CE85E3211102C090E089E29A
:103F30009093D3030E94EA0466CD20E0EECF89E29D
:103F400031CE0C35BDE51B0749F0073A1D4509F098
:103F5000DDCE0E947E0F0E94B719FBCF8091B7047F
:103F600082FB882780F991E089270E94EF13CECE4B
:103F700080E0FBCF8281C080D180882369F0C601B8
:103F80000E946C0C182F682FC6010E94A704B6016E
:103F9000812F0E94420CC0CEC6010E94C304182F7C
:103FA000F6CFF12FFF70BF2E103118F0B29490EFC2
:103FB000B922DD20C9F0BB2069F080E2800F883093
:103FC00010F001110BC08091D5038B298093D5038C
:103FD0000E94050D802F0E94820D4BC08091DA0354
:103FE0008B298093DA03F4CF802F0E94F60DB11055
:103FF00002C0802F62C080E2800F883010F0011173
:1040000006C08B2D0E9410050E94050DF2CFB094C2
:104010008091DA038B218093DA03F6CF212F2F7062
:10402000B22E812F807F803219F0B29480EFB822B7
:10403000002309F1013009F407C1DD2009F41DC195
:10404000CC2009F415C140E0D70112966C9112976B
:104050008D919C910E94B50C8091AF0481FDBACFE7
:10406000F701858180FFB6CF8F7085838B2D0E94ED
:104070005C0D802F13C08091B70482FD2AC0DD2023
:10408000B1F0BB2039F08091D5038B298093D50303
:104090000E94050D80E00E94820D80E0912F0E9419
:1040A0003304882309F441C0C11035C122C080E027
:1040B0000E94F60DB11007C080E0912F0E943304DA
:1040C0008111D5C232C08B2D0E9410050E94050DB2
:1040D000F3CFDD2009F463C0C11019C08091D4036F
:1040E0008B290E945C0D80E0912F0E94330488236D
:1040F000E1F0107F103611F4063FE9F08091EA03F9
:10410000823009F047C383E08093EA0314C041E0A2
:10411000C4122EC08091D4038B290E94780880E0BD
:10412000912F0E9433048111F6C01092B9041092AD
:10413000B804D110DECFAA20B1F08091E40380FD55
:1041400012C0D70112961C928595859585950E947F
:104150006212C7010E94221A8091E4038595859519
:1041600085950E94851260E0C7010E94D30C81CA28
:104170008091AE04823078F0C8120DC00E941805FC
:104180009091D6038B2D892B89138093D6038B2D89
:104190000E945C0D82CF8091D4038B29F9CFC1108E
:1041A00021C00E9418058B2D0E94700D80E0912F78
:1041B0000E943304882309F4B8CF40E0F7016281FC
:1041C000808191810E94B50C8091AF0483FF1EC055
:1041D0008091B8049091B9040297C1F4802F0E9495
:1041E000360E14C08091AE0451E0C51222C0823058
:1041F00010F480E005C08091D5038B2181110BC0A4
:10420000912F0E943304882309F48FCF1092B904B0
:104210001092B80490CF0E9418059091D6038B2D70
:104220008095892389138093D6038B2D0E94700D6E
:10423000E0CF823018F08C1509F43ECF0E941805AB
:104240008B2D0E94700D38CF8091B404DD2041F099
:104250008C1510F481E022CF8B2D0E945C0DFACFDB
:10426000C81610F081E029CF8B2D0E94700DFACF77
:104270008B2D0E945C0D802F37CFCC2081F0809158
:10428000B2049091B304093321F08091B00490916D
:10429000B1040E94E10A802F0E94F60DAACE8B2D58
:1042A0000E94700D802F83CF812F86958695837015
:1042B000882361F08130B1F0C8010E943304882363
:1042C00009F433CFDD2009F4D2C1EECEDD2029F090
:1042D000C80193700E942508CCCE80E090E00E9437
:1042E000250887CEDD2029F0C80193700E943B0885
:1042F000C0CE80E090E00E943B087BCE812F83708F
:10430000811141C0DD2061F00E94120BC8010E94A2
:1043100033048111C9CE1092B9041092B804E9CEC9
:10432000402F429546954770440F440F802F8F7061
:10433000042E01C0880F0A94EAF7202F207122234F
:1043400039F02FE030E001C0220F4A95EAF72095BE
:10435000312F369536953370323081F0333061F03D
:104360004091D703313039F0822B84230E945812B8
:104370000E94120B3ECE842B822BF8CF822B909181
:10438000D7038927F3CFDD2069F110FF41C0402F0B
:10439000429546954770440F440F802F8F70042E2E
:1043A00001C0880F0A94EAF7202F2071222339F0E8
:1043B0002FE030E001C0220F4A95EAF72095312F17
:1043C000369536953370323099F0333079F040912C
:1043D000D803313051F0822B84230E945D120E9459
:1043E000120B6ACF823020F2D2CF842B822BF5CFF2
:1043F000822B9091D8038927F0CFF12FFF70BF2E29
:10440000DD2049F08F2F0E946212802F0E945C0DE8
:104410000E94120B2ECE802F0E94700D8B2D0E94B9
:104420008512A6CF023F09F45BC078F4003FF1F09B
:10443000013F09F445C0DD2009F4F4C0CC2009F4A3
:10444000EAC0802F0E94820DE3CF033F09F458C0D9
:10445000043F09F46BC0D110F1CFC110ECC0812F23
:104460008F710E9485120E94120B1CCF8091B404A0
:10447000DD2099F0C81668F4212F2F7181E090E0BB
:1044800001C0880F2A95EAF79091D80389270E94E6
:104490005D120E94120B80EF01CE8C1568F0212F67
:1044A0002F7181E090E001C0880F2A95EAF7909182
:1044B000D80389270E945D120E94120B80EFFDCD68
:1044C000812F8F71DD2031F00E9462120E94120B49
:1044D00081EFE4CD0E9485120E94120B81EFEDCD99
:1044E000812F8F71DD2031F00E9485120E94120B06
:1044F00082EFD4CD0E9462120E94120B82EFDDCDBA
:10450000DD2069F081E0912F9F7101C0880F9A959D
:10451000EAF70E945D120E94120B83EFBFCD80E08C
:104520000E945D120E94120B83EFC7CD8091B704E9
:1045300082FD10C0812F8F71DD2031F00E94621248
:104540000E94120B84EFAACD0E9485120E94120BCA
:1045500084EFB3CD8091AE04823008F444C0DD20F6
:1045600039F19091E40397709430A9F41092E40328
:104570001092E6031092E503812F8F710E9485123D
:104580000E94120B84EF912F0E943304A12C811101
:104590008BCDA12CCACDC81698F7212F2F71B22E22
:1045A000822F0E94621263E08B2D0E946E12E8CF70
:1045B000C816A8F01092E4031092E6031092E503E7
:1045C00064E0812F8F710E946E120E94120B84EFA3
:1045D000912F0E9433048823E1F2A12C48C081E08E
:1045E0000E949512F2CFDD2059F0412F4F71B42E69
:1045F000842F0E94621263E08B2D0E946E12A0CF66
:1046000081E00E94951251E05C1508F09FCF82E096
:104610000E9495129BCF812F8F710E9462120E947F
:10462000120B29CECC2009F41ACF8091B2049091BC
:10463000B304093321F08091B0049091B1040E9439
:10464000E10A802F0E94F60D93CEE0E1E00FE73003
:1046500008F06DC0F0E0EC5DF84C0C946B36D110B6
:1046600053C0C8010E943304882309F4CFCDC11080
:10467000CDCDA3CDD092E9031FCE81E08D258093CF
:10468000E9031ACED11042CE81E08093E903E9CF4D
:10469000D1103CCE1092E903E4CFDD20C1F082E0DE
:1046A0008093EA0381E08093E9030E94510880939C
:1046B000E7039093E8032091E5033091E603232B71
:1046C00009F4D7CC8093E5039093E603D2CC809194
:1046D000EA03823021F481E08093EA038ACC8330BC
:1046E00009F087CC1092EA031092E9031092E803D4
:1046F0001092E7037ECCDD2071F08091D9038823EE
:1047000019F01092D903B5CC8091E90391E0892783
:104710008093E903AECC8091B404C81608F069CC4C
:104720008091E90391E089278093E90362CC80912D
:10473000D903CC20D9F0882341F08091E90391E09E
:1047400089278093E9031092D903D11043CC80913B
:10475000B0049091B1040E94E10A802F0E94F60DEE
:1047600088E0D7011D928A95E9F743CC882309F4A4
:10477000A3CDDD2031F0C8010E9433048111B9CCF2
:10478000CACD8091E90391E089278093E9031092D3
:10479000D90388CD813009F0CECC1092EA03109273
:1047A000E9031092E8031092E703C5CC8031BFE51E
:1047B0009B0711F40C943D1B81319F4511F00C9423
:1047C000471B82E00C943E1BEF92FF920F931F93C6
:1047D000CF93DF9380918D03803130F480918A03F1
:1047E000C0914703811107C0CDB7DEB7E6E00C9456
:1047F00048362196C770809146038C17A9F3209103
:1048000088033091890380918B0390918C03D0E0D1
:10481000009779F3432F42234F3F59F38E0143E032
:10482000000F111F4A95E1F7F801E85BFC4F418149
:104830003413DFCF30813213DCCF22812111D9CF65
:10484000E380F480E81AF90A60E088E893E00E94C7
:10485000D30C8091AA049091AB04E816F90648F6AF
:1048600080918D038F70806180938D03F801E35BED
:10487000FC4F80818F708061808388E893E00E9484
:10488000221A0E94E004B0CFADE0B0E0EAE4F4E226
:104890000C9425368C0185E0F801DE011996019013
:1048A0000D928A95E1F7D801DC901196EC90119762
:1048B0001296CC9012971396AD90BC9060E088E869
:1048C00093E00E94D30C90918803809189032091FA
:1048D0008B0330918C032115310509F4BFC1892365
:1048E0008F3F09F4BBC1F0908A034501821A930AF5
:1048F00060E088E893E0FF2009F45BC10E94D30CDC
:104900004091AA045091AB0470908D0384169506D3
:1049100008F01DC1809188039091890320918B0339
:1049200030918C03BFE0B71508F4B9C0232B31F1E7
:10493000282F29232F3F11F1F801218129131EC0AF
:10494000908198131BC020918E0330918F03868134
:1049500097812817390791F4C11026C0872D8F70D1
:10496000806180938D0388E893E00E94221A8091F1
:104970008D03D80115968C93F12C84C0443F51408F
:1049800020F48091AF0480FF3AC0A114B10409F46F
:1049900059C08E2D8D218F3F09F454C0E0914703FB
:1049A00090914603CC20D1F080918D03816080935B
:1049B0008D03E2CF2E2F30E048E0E49FF001112478
:1049C000E85BFC4F4181E41206C04081D41203C071
:1049D0004281411108C0F9013196E770E913EACF2D
:1049E0008F3FB1F4C9CF88E893E00E94221A88E093
:1049F000E8E8F3E0DF011D928A95E9F7BDCFA11445
:104A0000B10401F18E2D8D218F3FE1F0C110CCCF8B
:104A1000E091470380914603E81318C089859A8581
:104A20000E94970C292F22952F70903220F59F70AD
:104A3000992319F0882309F49FCF805E883008F409
:104A40009BCF1DC0CC2009F497CFAECF2E2F30E0E6
:104A5000B8E0EB9FF0011124E85BFC4F9181E91273
:104A600006C09081D91203C09281911185CFF901BE
:104A70003196E770D1CF225F2F70223040F0C8010D
:104A80000E94221A8F2D2D96EDE00C9441369F70D6
:104A9000992399F2F8019581903178F66DCF232B07
:104AA00041F1282F29232F3F21F1D80111962C9174
:104AB000119729131EC09C9198131BC020918E033F
:104AC00030918F0316968D919C911797281739076F
:104AD00081F4C1100EC015967C92C8010E94221A62
:104AE00088E0F801A8E8B3E001900D928A95E1F71B
:104AF0002BC0C8010E94A60C882309F4A7C0CC20B3
:104B000009F4A4C080918D038032A0F080918803C5
:104B1000909189039A8389831B82BD82AC827E82B5
:104B200080918E0390918F0398878F83CE01019699
:104B30000E94221A88E0F801A8E8B3E001900D92E3
:104B40008A95E1F70E94E423FF24F3949BCFBFE012
:104B5000B71508F048CF8091880390918903209180
:104B60008B0330918C03232B21F2282F29232F3FF5
:104B700009F4BFCFF80121812913BBCF908198138D
:104B8000B8CF20918E0330918F03868197812817AB
:104B9000390709F0AECFC110ACCF7582C8010E94B1
:104BA000221AE8E8F3E088E0DF011D928A95E9F730
:104BB000CBCF0E94D30C8091AA049091AB048816AD
:104BC000990608F047C0CC2009F440C080918803C2
:104BD0009091890320918B0330918C03232B61F1F9
:104BE000282F29232F3F41F1F8012181291324C0C7
:104BF0009081981321C020918E0330918F0386817C
:104C0000978128173907C1F48091AF0482FD68CFDE
:104C100080918D0380FD64CF803108F461CF85835E
:104C2000982F907F903F09F458CF982F907F905FF6
:104C30008F70892B858351CFC8010E94A60C8111EA
:104C400079CF80918D03816080938D03C8010E948C
:104C5000221A7ACFE8E8F3E088E0CCCECC20B1F39A
:104C6000C8010E94A60C882389F388E0F801A8E80F
:104C7000B3E001900D928A95E1F7809188039091BD
:104C800089030E94970C92959F70963009F05ACF35
:104C9000863F09F457CF8091E90391E089278093FB
:104CA000E9039093D9034ECFA0E1B0E0EAE5F6E244
:104CB0000C94303629873A874B875C876D877E87CF
:104CC0008F87988BCE0109960E944424811131C0B0
:104CD00088E0FE013996DE01119601900D928A95C9
:104CE000E1F789859A85A0914603209147034C8579
:104CF0005D85452BF1F089238F3FD9F0B0E0CD01E0
:104D000001968770992730E082179307E1F093E0CE
:104D1000AA0FBB1F9A95E1F7A85BBC4F98E0FE0174
:104D2000319601900D929A95E1F7809346030E9487
:104D3000E0048091470390914603891312C0609666
:104D4000E2E00C944C360E94720F109246031092CF
:104D5000470388E0E8E8F3E0DF011D928A95E9F770
:104D6000E8CFB8E08B9FC0011124885B9C4F0E9464
:104D70004424882321F38091470390E001968770B3
:104D8000992780934703D5CFA0E0B0E0EAECF6E2A4
:104D90000C942B3680915704882369F0C091D00180
:104DA000F12C8CE0E82E80915704C81748F010923F
:104DB00057041092D001CDB7DEB7E7E00C94473628
:104DC000DD24D394DC0ED092D0010C2F10E0EC9EA9
:104DD000E0011124C950DC4F8B819C81892B89F122
:104DE0008881998189238F3F61F18E819F81892BF1
:104DF00021F488859985019651F4288139814A8169
:104E00005B816C817D818E819F810E945426E09E12
:104E1000F001E19EF00D1124E950FC4F1482138241
:104E20001092DA03F1100BC0CE010E94A60C811182
:104E300008C08FE39CE90197F1F700C00000FF2450
:104E4000F394CD2DB0CFA4E0B0E0E9E2F7E20C940A
:104E500021362091F603298317E0812E01E010E02E
:104E60008CE0382E9EEF992E442443948091F503D4
:104E70009981891308C00E94C4260E94C7072496FE
:104E8000E1E10C943D365981452F50E05C834B8322
:104E9000FA01EE0FFF1FE551FC4F80819181889E42
:104EA000D001899EB00D1124FD01E65AFB4FFA8313
:104EB000E983248121115CC050905704E7EFF3E0AF
:104EC00060E070E0712C651508F050C0A284B384D6
:104ED000A981BA81CD90DC904FEF5FEF612C262D38
:104EE00030E07901EE0CFF1CEC0CFD1CD701ED90BD
:104EF000FC90E114F10439F0AE14BF0409F09A01FA
:104F00006394A901ECCF4F3F5407E1F1D80102C0EF
:104F1000AA0FBB1F4A95E2F77A2AA801062C02C005
:104F2000440F551F0A94E2F79A0121503109472D89
:104F300050E02417350721F5369EF001379EF00D1D
:104F40001124E950FC4F889ED001899EB00D112498
:104F5000A65ABB4F12962D913C9113973783268307
:104F6000908291829187808715964C920E94D807F3
:104F70008B819C8101969A8389838370898376CF04
:104F8000148213826F5F7F4F3C969DCF109259041D
:104F90001092580410923C018091F5038093F6031F
:104FA0000E94C7070E94C4260895ABE1B0E0EBED74
:104FB000F7E20C942036C62E6B8B7C8B8D8BF42EF7
:104FC000E52E0C891D89D62E0115110509F074C036
:104FD000D1101092DA031E861F86188AF98AEA8A8F
:104FE00085E0FE017196DE01199601900D928A9579
:104FF000E1F78091B70482FF3CC0809194049091C6
:105000009504892BB1F10E9451082091E50330915C
:10501000E603821B930B2091940430919504821730
:10502000930738F08091E40382FD03C082E00E9480
:1050300095120E945D0881110E9418050E94510876
:105040002091E7033091E803821B930B2091940495
:10505000309195048217930760F08091EA038130C4
:1050600041F41092EA031092E9031092E8031092BF
:10507000E70301151105A9F04F2D4E214F3F89F08F
:1050800061E0CE0109960E94D30C5C01873F5CE58C
:10509000950709F098C0DD2009F4A8C081E080934D
:1050A0003C0129853A854B855C856D857E858F859C
:1050B00098890E94542647C12FEF521709F444C023
:1050C0008091B8049091B90401969093B9048093AB
:1050D000B80461111092DA0349E04E1508F446C095
:1050E00055E05F1508F477CFEF2DF0E066E0E69E1F
:1050F000E00DF11D1124CF018770992721E030E0E8
:1051000001C0220F8A95EAF7DF0173E0B695A795F3
:105110007A95E1F7A452BC4F4C918091E903D110EC
:1051200002C0842F82238823E9F0CF01880F991FC2
:10513000FC01E856F94FE490FC01E956F94FE4917F
:10514000FE2E422B4C9347CF3FEF431709F440CF3D
:105150008091B8049091B90401969093B90480931A
:10516000B80436CF209524232C9335CF84E08E0DC0
:10517000823008F030CFEF2DF0E08F2D877021E0E6
:1051800030E0A90102C0440F551F8A95E2F7CA0119
:10519000DF0153E0B695A7955A95E1F7A552BC4FAC
:1051A0002C913091E903D11002C0322F38233323E0
:1051B00031F0EB56F94FE491FE2E282BD5CF809598
:1051C00082238C9308CF883F6CE5960729F4DD2075
:1051D00069F00E94C62765CF893F9C4539F4DD20E0
:1051E00029F080913C018111F4CF58CF0AE514E0F9
:1051F000712C412C512C22242394312CF801408114
:105200005181EE24EA94FF24FA9420E0822F90E06A
:10521000FC01EE0FFF1FE40FF51F60817181611526
:10522000710539F0A616B70609F0C7012F5F7C019A
:10523000EDCFFFEFEF16FF0609F46AC1F8015481C4
:1052400035814681511101C180913C01882309F4C7
:105250000EC1DD2009F40BC18090A8049090A90430
:10526000311114C081E090E00E2C01C0880F0A9427
:10527000EAF7482B46838091F3039091F403881555
:10528000990520F49092F4038092F303A10102C0E7
:10529000440F551F2A95E2F79A0121503109F80170
:1052A000868190E02817390781F480915804909105
:1052B0005904009709F44BC00E94AC08881699065F
:1052C00008F045C081E0F80184838C2D782AFFEF37
:1052D0004F1A5F0A095F1F4F28E04216510409F078
:1052E0008DCFDD2009F428C1772009F413C10E9475
:1052F0005108909359048093580480915704883042
:1053000010F591E0980F9093570498E0FE013996BC
:10531000DE01119601900D929A95E1F73CE0839F92
:10532000C001112489509C4F28E0FE013196DC0118
:1053300001900D922A95E1F72FEF3FEFFC013187A5
:105340002087B386A2866B96E2E10C943C362091CE
:10535000F6038091F503922FE0E0F0E0B7E06B2ECA
:105360000A8F1B8F281314C09093F603E017F107E0
:1053700009F4ABCF90E0FC01EE0FFF1FE551FC4FAD
:10538000518240820196837099278093F5039DCFC7
:10539000822E912CF401EE0FFF1FE551FC4F60812E
:1053A0007181669ED001679EB00D1124A65ABB4F35
:1053B0004D915C911197598F488F50E030E040E05B
:1053C000E42FF0E0EE0FFF1F688D798DE60FF71FD9
:1053D000E080F180E114F104E1F0F8010190F08146
:1053E000E02DFF8BEE8B30E005C0E616F70609F4E2
:1053F0005C2D3F5FE32FF0E0EE0FFF1F6E897F898A
:10540000E60FF71F608171816115710571F74F5FBC
:10541000D7CF5523B9F0EA8DFB8D341708F0FD0185
:1054200031E03483E017F10709F49ECF291305C05A
:10543000AE17BF0711F49F5F937094012F5F3F4F2A
:10544000237090CFE0E0F0E0F8CF50E031112CC0B5
:10545000B10102C0660F771F2A95E2F7CB010197D1
:105460004817590799F4C2010E94D8070FC050E0AD
:1054700031111AC0F10102C0EE0FFF1F2A95E2F7A9
:105480009F01215031094217530709F080E0910133
:1054900002C0220F331FEA94E2F77901E094F80189
:1054A00096819E21968312CFCA010E2C02C095953B
:1054B00087950A94E2F79A01215031092423352374
:1054C000232B21F580FF22C0F80182819381892B53
:1054D000C9F01B821C821D821E828EEF89838A8303
:1054E0000E9451088160582F692F9D838C83F80199
:1054F000828193818F83988729813A814B817E8134
:105500000E945426F801158281E0C1CF8170BFCF7F
:1055100080E0DCCE9091F5038091F603981309C0EA
:105520000E94C42610925904109258040E94C70782
:10553000B8CD0E942327B5CD9091F6038091F50355
:10554000981729F00E9423277110FDCEAACD0E9442
:10555000C42610925904109258040E94C707F4CF31
:10556000A5E0B0E0E6EBFAE20C9430369093CD0281
:105570008093CC02811520E2920730F40E94CB0D7B
:105580002596E2E00C944C3680EF89838A8381E093
:105590008B830E9451088160782F49815A816B81E9
:1055A000892F0E94D527ECCFA5E0B0E0EAEDFAE222
:1055B0000C9430369093CD028093CC02811520E27A
:1055C000920730F40E94200E2596E2E00C944C36AF
:1055D00080EF89838A831B820E9451088160782F23
:1055E00049815A816B81892F0E94D527EDCFAAE08E
:1055F000B0E0EDEFFAE20C942E36182F8E830DEF0B
:10560000611101C00CEF0F8381E088870E9451086F
:105610008160782F9A8789874E815F816885892F7D
:105620000E94D5278FE39FE10197F1F700C00000AA
:1056300019830A831B820E9451088160782F9D8301
:105640008C8349815A816B81892F0E94D5278FE3F2
:105650009FE10197F1F700C000002A96E4E00C9466
:105660004A36A1E0B0E0E7E3FBE20C942936EE24F1
:10567000E394F12C0AE013E09E012F5F3F4F46EFC9
:1056800052E063E082E00E942017082F882339F15E
:10569000D12C80E01DC0C090F502CD0C2C2D30E047
:1056A000A901415E5C4F7A01E1E0F0E0EC0FFD1FE3
:1056B000ED0DF11D1081FA019081191BB12E1B1403
:1056C0009CF0912F17FD90E0191B111118C0D39475
:1056D0009091F402D916F8F281110E94A908802F46
:1056E0002196E9E00C944536BA94F70180818F5FEA
:1056F000808360E08C2D0E94F72A802FE0CF1F5F0F
:10570000F70180818150808361E08C2D0E94F72A0F
:10571000802FDBCFCDB7DEB7AE970FB6F894DEBFE4
:105720000FBECDBF85B7806885BF85B7806885BF50
:1057300084B7877F84BF0FB6F894A89580916000E6
:10574000886180936000109260000FBE80E890E056
:105750000FB6F89480936100909361000FBE8DEEB8
:1057600096E09093A5018093A4010E9441180E94A5
:1057700085180E94DF0C0E94DD090E94860A809134
:10578000E20084608093E200789480910F03882384
:1057900099F08091E9001091EC0017951127179569
:1057A0008F70182B1092E9008091E80083FD0E9411
:1057B000940F1F701093E90082E084BD93E095BDC3
:1057C0009AEF97BD80936E00109217031092180302
:1057D0001092190310921A030E94C20B811102C089
:1057E0000E94A7190E94EF0A809301010E94EF0A0C
:1057F00081110E94BD34809101018091010190E0EE
:10580000811101C095E090932F0385E0891B80935F
:10581000240309E611E0AEE6EA2EA1E0FA2ED80153
:105820008D918D018F3F11F00E94EF06E016F10679
:10583000B1F70EE611E0F4E7EF2EF1E0FF2EF801EC
:1058400081918F018F3F11F00E94EF06E016F10663
:10585000B1F78AE0E5E2F3E0DF01282F1D922A95F7
:10586000E9F7E0E3F3E0DF011D928A95E9F780E0D4
:1058700090E00E94CA36883E9E4F21F40E94C20BDF
:10588000811102C00E94B71982E090E00E94C236E6
:105890008093D00284E090E00E94C236182F82E20A
:1058A00090E00E94C236982F812F9093B704809386
:1058B000B6040E946415EFE3FCE93197F1F700C0EC
:1058C00000000E9464158091250380FF08C06FEFDF
:1058D0007FEF80E090E00E94EE360E941E0983E098
:1058E00090E00E94C2360E9458128091010191E01E
:1058F000892780932103F92FF81BF093F5028091FB
:10590000010190932203809101019093F402809110
:105910000101811106C084EF8093110185EF80930E
:10592000100180911101E82FE295EF70F0E041A1A4
:105930008F7021E030E0B90102C0660F771F8A95B1
:10594000E2F7CB01962F9095942391A392A1892BF6
:1059500082A380911001E82FE295EF70F0E041A161
:105960008F70D90102C0AA0FBB1F8A95E2F7CD0143
:105970009A2F9095942391A392A1892B82A3EFE86B
:10598000F1E03197F1F700C000001091220361E1CE
:1059900071E040E151E0E5EEEE2EE2E0FE2EFB018B
:1059A0008E2F861B811708F454C00E94EF0A8111C4
:1059B00002C00E94C03482E091E090933B03809348
:1059C0003A0358E1252E312C6FE2462E63E0562E25
:1059D00080910F03853049F480910F03853009F4DD
:1059E00060C00E94720F0E94120B0E946415811108
:1059F0000E948C08E5E2F3E0A1EDB2E000E010E0E7
:105A0000E1908D918E1579F08E25282F2170F22E40
:105A1000211142C191E0DD24D394DF0CF92EFF0C5B
:105A200036E0D3128CC00F5F1F4F0A30110541F7CB
:105A30008FEF89838A831B820E9451088160782FAF
:105A40009D838C8349815A816B81892F0E94D52740
:105A500099C00191802F82958F70805E90E0DC016B
:105A60002C91DA013D91AD01832F82958F70805E7C
:105A700090E0DC018C9190E03F7002C09595879595
:105A80003A95E2F78170880F30E00F7002C03595CB
:105A900027950A95E2F72170822BD7018D937D011E
:105AA0007FCF80910F03843011F11092CE02B0E4C9
:105AB0000FB6F894A895209260000FBEB0936000D6
:105AC00083B7817F846083BF83B7816083BF78940D
:105AD000889583B78E7F83BF0FB6F894A895809181
